{
  "_format": "hh-sol-artifact-1",
  "contractName": "CreateToken",
  "sourceName": "contracts/CreateToken.sol",
  "abi": [
    {
      "inputs": [],
      "stateMutability": "nonpayable",
      "type": "constructor"
    },
    {
      "anonymous": false,
      "inputs": [
        {
          "indexed": true,
          "internalType": "address",
          "name": "account",
          "type": "address"
        },
        {
          "indexed": true,
          "internalType": "address",
          "name": "operator",
          "type": "address"
        },
        {
          "indexed": false,
          "internalType": "bool",
          "name": "approved",
          "type": "bool"
        }
      ],
      "name": "ApprovalForAll",
      "type": "event"
    },
    {
      "anonymous": false,
      "inputs": [
        {
          "indexed": false,
          "internalType": "address",
          "name": "to",
          "type": "address"
        },
        {
          "indexed": false,
          "internalType": "uint256",
          "name": "tokenId",
          "type": "uint256"
        },
        {
          "indexed": false,
          "internalType": "string",
          "name": "tokenURI",
          "type": "string"
        }
      ],
      "name": "Minted",
      "type": "event"
    },
    {
      "anonymous": false,
      "inputs": [
        {
          "indexed": true,
          "internalType": "address",
          "name": "previousOwner",
          "type": "address"
        },
        {
          "indexed": true,
          "internalType": "address",
          "name": "newOwner",
          "type": "address"
        }
      ],
      "name": "OwnershipTransferred",
      "type": "event"
    },
    {
      "anonymous": false,
      "inputs": [
        {
          "indexed": true,
          "internalType": "address",
          "name": "operator",
          "type": "address"
        },
        {
          "indexed": true,
          "internalType": "address",
          "name": "from",
          "type": "address"
        },
        {
          "indexed": true,
          "internalType": "address",
          "name": "to",
          "type": "address"
        },
        {
          "indexed": false,
          "internalType": "uint256[]",
          "name": "ids",
          "type": "uint256[]"
        },
        {
          "indexed": false,
          "internalType": "uint256[]",
          "name": "values",
          "type": "uint256[]"
        }
      ],
      "name": "TransferBatch",
      "type": "event"
    },
    {
      "anonymous": false,
      "inputs": [
        {
          "indexed": true,
          "internalType": "address",
          "name": "operator",
          "type": "address"
        },
        {
          "indexed": true,
          "internalType": "address",
          "name": "from",
          "type": "address"
        },
        {
          "indexed": true,
          "internalType": "address",
          "name": "to",
          "type": "address"
        },
        {
          "indexed": false,
          "internalType": "uint256",
          "name": "id",
          "type": "uint256"
        },
        {
          "indexed": false,
          "internalType": "uint256",
          "name": "value",
          "type": "uint256"
        }
      ],
      "name": "TransferSingle",
      "type": "event"
    },
    {
      "anonymous": false,
      "inputs": [
        {
          "indexed": false,
          "internalType": "string",
          "name": "value",
          "type": "string"
        },
        {
          "indexed": true,
          "internalType": "uint256",
          "name": "id",
          "type": "uint256"
        }
      ],
      "name": "URI",
      "type": "event"
    },
    {
      "inputs": [
        {
          "internalType": "address",
          "name": "account",
          "type": "address"
        },
        {
          "internalType": "uint256",
          "name": "id",
          "type": "uint256"
        }
      ],
      "name": "balanceOf",
      "outputs": [
        {
          "internalType": "uint256",
          "name": "",
          "type": "uint256"
        }
      ],
      "stateMutability": "view",
      "type": "function"
    },
    {
      "inputs": [
        {
          "internalType": "address[]",
          "name": "accounts",
          "type": "address[]"
        },
        {
          "internalType": "uint256[]",
          "name": "ids",
          "type": "uint256[]"
        }
      ],
      "name": "balanceOfBatch",
      "outputs": [
        {
          "internalType": "uint256[]",
          "name": "",
          "type": "uint256[]"
        }
      ],
      "stateMutability": "view",
      "type": "function"
    },
    {
      "inputs": [
        {
          "internalType": "address",
          "name": "account",
          "type": "address"
        },
        {
          "internalType": "address",
          "name": "operator",
          "type": "address"
        }
      ],
      "name": "isApprovedForAll",
      "outputs": [
        {
          "internalType": "bool",
          "name": "",
          "type": "bool"
        }
      ],
      "stateMutability": "view",
      "type": "function"
    },
    {
      "inputs": [
        {
          "internalType": "string",
          "name": "tokenURI",
          "type": "string"
        }
      ],
      "name": "mintNFT",
      "outputs": [
        {
          "internalType": "uint256",
          "name": "",
          "type": "uint256"
        }
      ],
      "stateMutability": "nonpayable",
      "type": "function"
    },
    {
      "inputs": [],
      "name": "owner",
      "outputs": [
        {
          "internalType": "address",
          "name": "",
          "type": "address"
        }
      ],
      "stateMutability": "view",
      "type": "function"
    },
    {
      "inputs": [],
      "name": "renounceOwnership",
      "outputs": [],
      "stateMutability": "nonpayable",
      "type": "function"
    },
    {
      "inputs": [
        {
          "internalType": "address",
          "name": "from",
          "type": "address"
        },
        {
          "internalType": "address",
          "name": "to",
          "type": "address"
        },
        {
          "internalType": "uint256[]",
          "name": "ids",
          "type": "uint256[]"
        },
        {
          "internalType": "uint256[]",
          "name": "amounts",
          "type": "uint256[]"
        },
        {
          "internalType": "bytes",
          "name": "data",
          "type": "bytes"
        }
      ],
      "name": "safeBatchTransferFrom",
      "outputs": [],
      "stateMutability": "nonpayable",
      "type": "function"
    },
    {
      "inputs": [
        {
          "internalType": "address",
          "name": "from",
          "type": "address"
        },
        {
          "internalType": "address",
          "name": "to",
          "type": "address"
        },
        {
          "internalType": "uint256",
          "name": "id",
          "type": "uint256"
        },
        {
          "internalType": "uint256",
          "name": "amount",
          "type": "uint256"
        },
        {
          "internalType": "bytes",
          "name": "data",
          "type": "bytes"
        }
      ],
      "name": "safeTransferFrom",
      "outputs": [],
      "stateMutability": "nonpayable",
      "type": "function"
    },
    {
      "inputs": [
        {
          "internalType": "address",
          "name": "operator",
          "type": "address"
        },
        {
          "internalType": "bool",
          "name": "approved",
          "type": "bool"
        }
      ],
      "name": "setApprovalForAll",
      "outputs": [],
      "stateMutability": "nonpayable",
      "type": "function"
    },
    {
      "inputs": [
        {
          "internalType": "bytes4",
          "name": "interfaceId",
          "type": "bytes4"
        }
      ],
      "name": "supportsInterface",
      "outputs": [
        {
          "internalType": "bool",
          "name": "",
          "type": "bool"
        }
      ],
      "stateMutability": "view",
      "type": "function"
    },
    {
      "inputs": [
        {
          "internalType": "address",
          "name": "newOwner",
          "type": "address"
        }
      ],
      "name": "transferOwnership",
      "outputs": [],
      "stateMutability": "nonpayable",
      "type": "function"
    },
    {
      "inputs": [
        {
          "internalType": "uint256",
          "name": "",
          "type": "uint256"
        }
      ],
      "name": "uri",
      "outputs": [
        {
          "internalType": "string",
          "name": "",
          "type": "string"
        }
      ],
      "stateMutability": "view",
      "type": "function"
    }
  ],
  "bytecode": "0x60806040523480156200001157600080fd5b5060408051808201909152601981527f68747470733a2f2f697066732e696f2f697066732f7b69647d000000000000006020820152620000518162000063565b506200005d336200007c565b620001b1565b805162000078906002906020840190620000ce565b5050565b600380546001600160a01b038381166001600160a01b0319831681179093556040519116919082907f8be0079c531659141344cd1fd0a4f28419497f9722a3daafe3b4186f6b6457e090600090a35050565b828054620000dc9062000174565b90600052602060002090601f0160209004810192826200010057600085556200014b565b82601f106200011b57805160ff19168380011785556200014b565b828001600101855582156200014b579182015b828111156200014b5782518255916020019190600101906200012e565b50620001599291506200015d565b5090565b5b808211156200015957600081556001016200015e565b600181811c908216806200018957607f821691505b60208210811415620001ab57634e487b7160e01b600052602260045260246000fd5b50919050565b61185480620001c16000396000f3fe608060405234801561001057600080fd5b50600436106100b35760003560e01c80638da5cb5b116100715780638da5cb5b1461015e578063a22cb46514610179578063e985e9c51461018c578063f242432a146101c8578063f2fde38b146101db578063fb37e883146101ee57600080fd5b8062fdd58e146100b857806301ffc9a7146100de5780630e89341c146101015780632eb2c2d6146101215780634e1273f414610136578063715018a614610156575b600080fd5b6100cb6100c6366004610f6e565b610201565b6040519081526020015b60405180910390f35b6100f16100ec366004610fae565b610297565b60405190151581526020016100d5565b61011461010f366004610fd2565b6102e9565b6040516100d59190611038565b61013461012f3660046111a1565b61037d565b005b61014961014436600461124b565b6103c9565b6040516100d59190611351565b6101346104f3565b6003546040516001600160a01b0390911681526020016100d5565b610134610187366004611364565b610507565b6100f161019a3660046113a0565b6001600160a01b03918216600090815260016020908152604080832093909416825291909152205460ff1690565b6101346101d63660046113d3565b610516565b6101346101e9366004611438565b61055b565b6100cb6101fc366004611453565b6105d4565b60006001600160a01b0383166102715760405162461bcd60e51b815260206004820152602a60248201527f455243313135353a2061646472657373207a65726f206973206e6f742061207660448201526930b634b21037bbb732b960b11b60648201526084015b60405180910390fd5b506000908152602081815260408083206001600160a01b03949094168352929052205490565b60006001600160e01b03198216636cdb3d1360e11b14806102c857506001600160e01b031982166303a24d0760e21b145b806102e357506301ffc9a760e01b6001600160e01b03198316145b92915050565b6060600280546102f8906114a4565b80601f0160208091040260200160405190810160405280929190818152602001828054610324906114a4565b80156103715780601f1061034657610100808354040283529160200191610371565b820191906000526020600020905b81548152906001019060200180831161035457829003601f168201915b50505050509050919050565b6001600160a01b0385163314806103995750610399853361019a565b6103b55760405162461bcd60e51b8152600401610268906114df565b6103c28585858585610683565b5050505050565b6060815183511461042e5760405162461bcd60e51b815260206004820152602960248201527f455243313135353a206163636f756e747320616e6420696473206c656e677468604482015268040dad2e6dac2e8c6d60bb1b6064820152608401610268565b6000835167ffffffffffffffff81111561044a5761044a61104b565b604051908082528060200260200182016040528015610473578160200160208202803683370190505b50905060005b84518110156104eb576104be8582815181106104975761049761152d565b60200260200101518583815181106104b1576104b161152d565b6020026020010151610201565b8282815181106104d0576104d061152d565b60209081029190910101526104e481611559565b9050610479565b509392505050565b6104fb610860565b61050560006108ba565b565b61051233838361090c565b5050565b6001600160a01b0385163314806105325750610532853361019a565b61054e5760405162461bcd60e51b8152600401610268906114df565b6103c285858585856109ed565b610563610860565b6001600160a01b0381166105c85760405162461bcd60e51b815260206004820152602660248201527f4f776e61626c653a206e6577206f776e657220697320746865207a65726f206160448201526564647265737360d01b6064820152608401610268565b6105d1816108ba565b50565b60006105de610860565b6105ec600480546001019055565b60006105f760045490565b905061062661060e6003546001600160a01b031690565b82600160405180602001604052806000815250610b17565b61062f83610c2b565b7fe7cd4ce7f2a465edc730269a1305e8a48bad821e8fb7e152ec413829c01a53c46106626003546001600160a01b031690565b828560405161067393929190611574565b60405180910390a190505b919050565b81518351146106e55760405162461bcd60e51b815260206004820152602860248201527f455243313135353a2069647320616e6420616d6f756e7473206c656e677468206044820152670dad2e6dac2e8c6d60c31b6064820152608401610268565b6001600160a01b03841661070b5760405162461bcd60e51b8152600401610268906115a4565b3360005b84518110156107f257600085828151811061072c5761072c61152d565b60200260200101519050600085838151811061074a5761074a61152d565b602090810291909101810151600084815280835260408082206001600160a01b038e16835290935291909120549091508181101561079a5760405162461bcd60e51b8152600401610268906115e9565b6000838152602081815260408083206001600160a01b038e8116855292528083208585039055908b168252812080548492906107d7908490611633565b92505081905550505050806107eb90611559565b905061070f565b50846001600160a01b0316866001600160a01b0316826001600160a01b03167f4a39dc06d4c0dbc64b70af90fd698a233a518aa5d07e595d983b8c0526c8f7fb878760405161084292919061164b565b60405180910390a4610858818787878787610c3e565b505050505050565b6003546001600160a01b031633146105055760405162461bcd60e51b815260206004820181905260248201527f4f776e61626c653a2063616c6c6572206973206e6f7420746865206f776e65726044820152606401610268565b600380546001600160a01b038381166001600160a01b0319831681179093556040519116919082907f8be0079c531659141344cd1fd0a4f28419497f9722a3daafe3b4186f6b6457e090600090a35050565b816001600160a01b0316836001600160a01b031614156109805760405162461bcd60e51b815260206004820152602960248201527f455243313135353a2073657474696e6720617070726f76616c20737461747573604482015268103337b91039b2b63360b91b6064820152608401610268565b6001600160a01b03838116600081815260016020908152604080832094871680845294825291829020805460ff191686151590811790915591519182527f17307eab39ab6107e8899845ad3d59bd9653f200f220920489ca2b5937696c31910160405180910390a3505050565b6001600160a01b038416610a135760405162461bcd60e51b8152600401610268906115a4565b336000610a1f85610da9565b90506000610a2c85610da9565b90506000868152602081815260408083206001600160a01b038c16845290915290205485811015610a6f5760405162461bcd60e51b8152600401610268906115e9565b6000878152602081815260408083206001600160a01b038d8116855292528083208985039055908a16825281208054889290610aac908490611633565b909155505060408051888152602081018890526001600160a01b03808b16928c821692918816917fc3d58168c5ae7397731d063d5bbf3d657854427343f4c083240f7aacaa2d0f62910160405180910390a4610b0c848a8a8a8a8a610df4565b505050505050505050565b6001600160a01b038416610b775760405162461bcd60e51b815260206004820152602160248201527f455243313135353a206d696e7420746f20746865207a65726f206164647265736044820152607360f81b6064820152608401610268565b336000610b8385610da9565b90506000610b9085610da9565b90506000868152602081815260408083206001600160a01b038b16845290915281208054879290610bc2908490611633565b909155505060408051878152602081018790526001600160a01b03808a1692600092918716917fc3d58168c5ae7397731d063d5bbf3d657854427343f4c083240f7aacaa2d0f62910160405180910390a4610c2283600089898989610df4565b50505050505050565b8051610512906002906020840190610ebe565b6001600160a01b0384163b156108585760405163bc197c8160e01b81526001600160a01b0385169063bc197c8190610c829089908990889088908890600401611670565b602060405180830381600087803b158015610c9c57600080fd5b505af1925050508015610ccc575060408051601f3d908101601f19168201909252610cc9918101906116ce565b60015b610d7957610cd86116eb565b806308c379a01415610d125750610ced611707565b80610cf85750610d14565b8060405162461bcd60e51b81526004016102689190611038565b505b60405162461bcd60e51b815260206004820152603460248201527f455243313135353a207472616e7366657220746f206e6f6e2d455243313135356044820152732932b1b2b4bb32b91034b6b83632b6b2b73a32b960611b6064820152608401610268565b6001600160e01b0319811663bc197c8160e01b14610c225760405162461bcd60e51b815260040161026890611791565b60408051600180825281830190925260609160009190602080830190803683370190505090508281600081518110610de357610de361152d565b602090810291909101015292915050565b6001600160a01b0384163b156108585760405163f23a6e6160e01b81526001600160a01b0385169063f23a6e6190610e3890899089908890889088906004016117d9565b602060405180830381600087803b158015610e5257600080fd5b505af1925050508015610e82575060408051601f3d908101601f19168201909252610e7f918101906116ce565b60015b610e8e57610cd86116eb565b6001600160e01b0319811663f23a6e6160e01b14610c225760405162461bcd60e51b815260040161026890611791565b828054610eca906114a4565b90600052602060002090601f016020900481019282610eec5760008555610f32565b82601f10610f0557805160ff1916838001178555610f32565b82800160010185558215610f32579182015b82811115610f32578251825591602001919060010190610f17565b50610f3e929150610f42565b5090565b5b80821115610f3e5760008155600101610f43565b80356001600160a01b038116811461067e57600080fd5b60008060408385031215610f8157600080fd5b610f8a83610f57565b946020939093013593505050565b6001600160e01b0319811681146105d157600080fd5b600060208284031215610fc057600080fd5b8135610fcb81610f98565b9392505050565b600060208284031215610fe457600080fd5b5035919050565b6000815180845260005b8181101561101157602081850181015186830182015201610ff5565b81811115611023576000602083870101525b50601f01601f19169290920160200192915050565b602081526000610fcb6020830184610feb565b634e487b7160e01b600052604160045260246000fd5b601f8201601f1916810167ffffffffffffffff811182821017156110875761108761104b565b6040525050565b600067ffffffffffffffff8211156110a8576110a861104b565b5060051b60200190565b600082601f8301126110c357600080fd5b813560206110d08261108e565b6040516110dd8282611061565b83815260059390931b85018201928281019150868411156110fd57600080fd5b8286015b848110156111185780358352918301918301611101565b509695505050505050565b600067ffffffffffffffff83111561113d5761113d61104b565b604051611154601f8501601f191660200182611061565b80915083815284848401111561116957600080fd5b83836020830137600060208583010152509392505050565b600082601f83011261119257600080fd5b610fcb83833560208501611123565b600080600080600060a086880312156111b957600080fd5b6111c286610f57565b94506111d060208701610f57565b9350604086013567ffffffffffffffff808211156111ed57600080fd5b6111f989838a016110b2565b9450606088013591508082111561120f57600080fd5b61121b89838a016110b2565b9350608088013591508082111561123157600080fd5b5061123e88828901611181565b9150509295509295909350565b6000806040838503121561125e57600080fd5b823567ffffffffffffffff8082111561127657600080fd5b818501915085601f83011261128a57600080fd5b813560206112978261108e565b6040516112a48282611061565b83815260059390931b85018201928281019150898411156112c457600080fd5b948201945b838610156112e9576112da86610f57565b825294820194908201906112c9565b965050860135925050808211156112ff57600080fd5b5061130c858286016110b2565b9150509250929050565b600081518084526020808501945080840160005b838110156113465781518752958201959082019060010161132a565b509495945050505050565b602081526000610fcb6020830184611316565b6000806040838503121561137757600080fd5b61138083610f57565b91506020830135801515811461139557600080fd5b809150509250929050565b600080604083850312156113b357600080fd5b6113bc83610f57565b91506113ca60208401610f57565b90509250929050565b600080600080600060a086880312156113eb57600080fd5b6113f486610f57565b945061140260208701610f57565b93506040860135925060608601359150608086013567ffffffffffffffff81111561142c57600080fd5b61123e88828901611181565b60006020828403121561144a57600080fd5b610fcb82610f57565b60006020828403121561146557600080fd5b813567ffffffffffffffff81111561147c57600080fd5b8201601f8101841361148d57600080fd5b61149c84823560208401611123565b949350505050565b600181811c908216806114b857607f821691505b602082108114156114d957634e487b7160e01b600052602260045260246000fd5b50919050565b6020808252602e908201527f455243313135353a2063616c6c6572206973206e6f7420746f6b656e206f776e60408201526d195c881bdc88185c1c1c9bdd995960921b606082015260800190565b634e487b7160e01b600052603260045260246000fd5b634e487b7160e01b600052601160045260246000fd5b600060001982141561156d5761156d611543565b5060010190565b60018060a01b038416815282602082015260606040820152600061159b6060830184610feb565b95945050505050565b60208082526025908201527f455243313135353a207472616e7366657220746f20746865207a65726f206164604082015264647265737360d81b606082015260800190565b6020808252602a908201527f455243313135353a20696e73756666696369656e742062616c616e636520666f60408201526939103a3930b739b332b960b11b606082015260800190565b6000821982111561164657611646611543565b500190565b60408152600061165e6040830185611316565b828103602084015261159b8185611316565b6001600160a01b0386811682528516602082015260a06040820181905260009061169c90830186611316565b82810360608401526116ae8186611316565b905082810360808401526116c28185610feb565b98975050505050505050565b6000602082840312156116e057600080fd5b8151610fcb81610f98565b600060033d11156117045760046000803e5060005160e01c5b90565b600060443d10156117155790565b6040516003193d81016004833e81513d67ffffffffffffffff816024840111818411171561174557505050505090565b828501915081518181111561175d5750505050505090565b843d87010160208285010111156117775750505050505090565b61178660208286010187611061565b509095945050505050565b60208082526028908201527f455243313135353a204552433131353552656365697665722072656a656374656040820152676420746f6b656e7360c01b606082015260800190565b6001600160a01b03868116825285166020820152604081018490526060810183905260a06080820181905260009061181390830184610feb565b97965050505050505056fea264697066735822122088df4f7323f5d96cd22957ac4ff9adad1367e2fa675bbe7136c613e985c85a9c64736f6c63430008090033",
  "linkReferences": {},
  "deployedLinkReferences": {}
}